:020000040000fa
:0800000004e804000200000006
:020000040000fa
:1000080004ea020008ea02000cea020010ea020010
:1000180014ea020000ea020018ea020000ea0200fc
:100028001cea020020ea020024ea020028ea020090
:100038002cea020030ea020034ea020038ea020040
:100048003cea020040ea020044ea020048ea0200f0
:100058004cea020050ea020054ea020058ea0200a0
:100068005cea020060ea020064ea020068ea020050
:100078006cea020000ea020070ea020074ea020078
:1000880078ea02007cea020080ea020084ea0200c0
:1000980088ea02008cea020090ea020094ea020070
:1000a80098ea02009cea020000ea020000ea020064
:1000b800a0ea0200a4ea0200a8ea0200acea0200f0
:1000c800b0ea0200b4ea0200b8ea0200bcea0200a0
:1000d800c0ea0200c4ea0200c8ea0200ccea020050
:1000e800d0ea0200d4ea0200d8ea0200dcea020000
:1000f80000ea0200e0ea0200e4ea020000ea020084
:1001080000ea020000ea0200e8ea0200ecea020063
:10011800f0ea0200f4ea0200f8ea0200fcea02004f
:1001280000eb020004eb020008eb02000ceb0200fb
:1001380010eb020014eb020018eb02001ceb0200ab
:1001480020eb020024eb020000ea020000ea0200b1
:1001580000ea020028eb020000ea020000ea0200be
:1001680000ea02002ceb020030eb020034eb020044
:1001780038eb02003ceb020040eb020044eb0200cb
:1001880048eb02004ceb020050eb020054eb02007b
:1001980000ea020000ea020058eb02005ceb0200f1
:1001a80060eb020064eb020068eb02006ceb0200fb
:1001b80000ea020070eb020074eb020000ea0200a1
:1001c80000ea020000ea020078eb020000ea0200fe
:1001d80000ea02007ceb020080eb020084eb0200e4
:1001e80088eb02008ceb020090eb020094eb02001b
:0801f80098eb02009ceb0200f1
:020000040000fa
:020000040005f5
:08d0000004e804000200000036
:020000040000fa
:020000040005f5
:10d008002f8220000eff27000e018800000000007c
:10d01800000020000000e0000200320000012000b3
:10d0280020028800140007008e0007000000e000be
:10d0380003003a0000ba2e00210020000200370049
:10d048000000200001002000810f70000100320064
:10d0580014000700000020000000e0000200320079
:10d068000000020000000000bceb0200020000000b
:10d078000040da000000fe004440a9002000200023
:10d088000000e0000300320010002000900188003a
:10d098004440a800000006008a1f78008b1f780013
:10d0a80000000600a1028800800478000000eb0060
:10d0b8001f003700e284440054a0b4009905ba0068
:10d0c800e284440054a0b4009906ba00e284440003
:10d0d80054a0b4000006eb00476fde00fd07b20065
:10d0e800ae018800636ce10003003a00eaff070024
:10d0f8000000eb000e003700606ce10008003a0009
:10d10800004deb000a05e800020039003420ec006d
:10d118000af0a0008b05e900f9ff3e000400370083
:10d128006168e100010032000086eb000b00070097
:10d1380019c7ba001905ba000e04e00003003a0046
:10d148000a00e000dbff3a0000000600fe07b2001c
:10d15800ae0288008a047800f5ff37000cd0a300df
:10d16800e20f4d001c00390089027800354dba00e5
:10d178000a05e800020039003420ec000af0a0009b
:10d188008b05e9000f003200254dba000a05e800ba
:10d19800020039003420ec000af0a0008b05e900f9
:10d1a800080032000c00e0000600320015cdba007d
:10d1b8000a05e800020039003420ec000af0a0005b
:10d1c8008b05e9008984e80054a0b4000b00e00056
:10d1d800e2ff3a00000006009902ba00055d7800f7
:10d1e8008b05e900f7ff3200c82ade00055d7800ec
:10d1f8008b05e900f3ff32000c00e000f1ff32007c
:10d2080019ddba00eeff37003600f8008020a900cb
:10d218000000eb00680007003600f8006a0007000d
:10d228008040a90010002000630007003600f800c5
:10d238008060a900200020005f0007003600f80089
:10d248008080a900300020005b0007003600f8004d
:10d258008600a90070002000570007000040da008f
:08d268000000fe0000000500bb
:020000040000fa
:020000040005f5
:10d270000000fa007a26ef008e26ef00a226ef00cb
:10d28000b626ef00ca26ef00de26ef000080eb0096
:10d29000b03388000000270050348800f0ff2000e1
:10d2a000f0348800f00f200090358800f00720004f
:10d2b00030368800c03c2000d03688008826ef0039
:10d2c0009c26ef00b026ef00c426ef00d826ef0022
:10d2d000ec26ef008626ef009a26ef00ae26ef0040
:10d2e000c226ef00d626ef00ea26ef007c26ef00ec
:10d2f0009026ef00a426ef00b826ef00cc26ef0022
:10d30000e026ef00c0ff2f00f0338800000022006d
:10d3100090348800000c2000303588000001200087
:10d32000d0358800003c2000103788000080fa00cb
:10d33000000006000000fa0000002300100888002a
:10d340000621ef006821ef006a21ef000821ef00bd
:10d3500000702000500888000c21ef000e21ef0023
:10d360007821ef007a21ef007c21ef007e21ef0091
:10d370008021ef008221ef008421ef008621ef0061
:10d380000001eb0080072000a109200013102000fd
:10d390008049780081497800824978000001eb00db
:10d3a00060042000710520000310200080497800ef
:10d3b00081497800824978000080fa000000060068
:10d3c000000f78009e00780001408800ffff3700c2
:10d3d0000000fa002080200080077800a081200053
:0cd3e000000188000080fa000000060038
:020000040000fa
:020000040005f5
:10d3ec000000fa00d0ff07000080fa0000000600e1
:020000040000fa
:020000040005f5
:04d3fc00ffff3700f8
:020000040000fa
:020000040005f5
:08d4000032e904000200000003
:020000040000fa
:020000040005f5
:08d4080008e904000200000025
:020000040000fa
:020000040005f5
:08d410001ae90400020000000b
:020000040000fa
:020000040005f5
:08d418002ae9040002000000f3
:020000040000fa
:020000040005f5
:08d4200010e904000200000005
:020000040000fa
:020000040005f5
:08d4280022e9040002000000eb
:020000040000fa
:020000040005f5
:08d4300000ea04000200000004
:020000040000fa
:020000040005f5
:08d4380000ea040002000000fc
:020000040000fa
:020000040005f5
:08d4400000ea040002000000f4
:020000040000fa
:020000040005f5
:08d4480000ea040002000000ec
:020000040000fa
:020000040005f5
:08d4500000ea040002000000e4
:020000040000fa
:020000040005f5
:08d4580000ea040002000000dc
:020000040000fa
:020000040005f5
:08d4600000ea040002000000d4
:020000040000fa
:020000040005f5
:08d4680000ea040002000000cc
:020000040000fa
:020000040005f5
:08d4700000ea040002000000c4
:020000040000fa
:020000040005f5
:08d4780000ea040002000000bc
:020000040000fa
:020000040005f5
:08d4800000ea040002000000b4
:020000040000fa
:020000040005f5
:08d4880000ea040002000000ac
:020000040000fa
:020000040005f5
:08d4900000ea040002000000a4
:020000040000fa
:020000040005f5
:08d4980000ea0400020000009c
:020000040000fa
:020000040005f5
:08d4a00000ea04000200000094
:020000040000fa
:020000040005f5
:08d4a80000ea0400020000008c
:020000040000fa
:020000040005f5
:08d4b00000ea04000200000084
:020000040000fa
:020000040005f5
:08d4b80000ea0400020000007c
:020000040000fa
:020000040005f5
:08d4c00000ea04000200000074
:020000040000fa
:020000040005f5
:08d4c80000ea0400020000006c
:020000040000fa
:020000040005f5
:08d4d00000ea04000200000064
:020000040000fa
:020000040005f5
:08d4d80000ea0400020000005c
:020000040000fa
:020000040005f5
:08d4e00000ea04000200000054
:020000040000fa
:020000040005f5
:08d4e80000ea0400020000004c
:020000040000fa
:020000040005f5
:08d4f00000ea04000200000044
:020000040000fa
:020000040005f5
:08d4f80000ea0400020000003c
:020000040000fa
:020000040005f5
:08d5000000ea04000200000033
:020000040000fa
:020000040005f5
:08d5080000ea0400020000002b
:020000040000fa
:020000040005f5
:08d5100000ea04000200000023
:020000040000fa
:020000040005f5
:08d5180000ea0400020000001b
:020000040000fa
:020000040005f5
:08d5200000ea04000200000013
:020000040000fa
:020000040005f5
:08d5280000ea0400020000000b
:020000040000fa
:020000040005f5
:08d5300000ea04000200000003
:020000040000fa
:020000040005f5
:08d5380000ea040002000000fb
:020000040000fa
:020000040005f5
:08d5400000ea040002000000f3
:020000040000fa
:020000040005f5
:08d5480000ea040002000000eb
:020000040000fa
:020000040005f5
:08d5500000ea040002000000e3
:020000040000fa
:020000040005f5
:08d5580000ea040002000000db
:020000040000fa
:020000040005f5
:08d5600000ea040002000000d3
:020000040000fa
:020000040005f5
:08d5680000ea040002000000cb
:020000040000fa
:020000040005f5
:08d5700000ea040002000000c3
:020000040000fa
:020000040005f5
:08d5780000ea040002000000bb
:020000040000fa
:020000040005f5
:08d5800000ea040002000000b3
:020000040000fa
:020000040005f5
:08d5880000ea040002000000ab
:020000040000fa
:020000040005f5
:08d5900000ea040002000000a3
:020000040000fa
:020000040005f5
:08d5980000ea0400020000009b
:020000040000fa
:020000040005f5
:08d5a00000ea04000200000093
:020000040000fa
:020000040005f5
:08d5a80000ea0400020000008b
:020000040000fa
:020000040005f5
:08d5b00000ea04000200000083
:020000040000fa
:020000040005f5
:08d5b80000ea0400020000007b
:020000040000fa
:020000040005f5
:08d5c00000ea04000200000073
:020000040000fa
:020000040005f5
:08d5c80000ea0400020000006b
:020000040000fa
:020000040005f5
:08d5d00000ea04000200000063
:020000040000fa
:020000040005f5
:08d5d80000ea0400020000005b
:020000040000fa
:020000040005f5
:08d5e00000ea04000200000053
:020000040000fa
:020000040005f5
:08d5e80000ea0400020000004b
:020000040000fa
:020000040005f5
:08d5f00000ea04000200000043
:020000040000fa
:020000040005f5
:08d5f80000ea0400020000003b
:020000040000fa
:020000040005f5
:08d6000000ea04000200000032
:020000040000fa
:020000040005f5
:08d6080000ea0400020000002a
:020000040000fa
:020000040005f5
:08d6100000ea04000200000022
:020000040000fa
:020000040005f5
:08d6180000ea0400020000001a
:020000040000fa
:020000040005f5
:08d6200000ea04000200000012
:020000040000fa
:020000040005f5
:08d6280000ea0400020000000a
:020000040000fa
:020000040005f5
:08d6300000ea04000200000002
:020000040000fa
:020000040005f5
:08d6380000ea040002000000fa
:020000040000fa
:020000040005f5
:08d6400000ea040002000000f2
:020000040000fa
:020000040005f5
:08d6480000ea040002000000ea
:020000040000fa
:020000040005f5
:08d6500000ea040002000000e2
:020000040000fa
:020000040005f5
:08d6580000ea040002000000da
:020000040000fa
:020000040005f5
:08d6600000ea040002000000d2
:020000040000fa
:020000040005f5
:08d6680000ea040002000000ca
:020000040000fa
:020000040005f5
:08d6700000ea040002000000c2
:020000040000fa
:020000040005f5
:08d6780000ea040002000000ba
:020000040000fa
:020000040005f5
:08d6800000ea040002000000b2
:020000040000fa
:020000040005f5
:08d6880000ea040002000000aa
:020000040000fa
:020000040005f5
:08d6900000ea040002000000a2
:020000040000fa
:020000040005f5
:08d6980000ea0400020000009a
:020000040000fa
:020000040005f5
:08d6a00000ea04000200000092
:020000040000fa
:020000040005f5
:08d6a80000ea0400020000008a
:020000040000fa
:020000040005f5
:08d6b00000ea04000200000082
:020000040000fa
:020000040005f5
:08d6b80000ea0400020000007a
:020000040000fa
:020000040005f5
:08d6c00000ea04000200000072
:020000040000fa
:020000040005f5
:08d6c80000ea0400020000006a
:020000040000fa
:020000040005f5
:08d6d00000ea04000200000062
:020000040000fa
:020000040005f5
:08d6d80000ea0400020000005a
:020000040000fa
:020000040005f5
:08d6e00000ea04000200000052
:020000040000fa
:020000040005f5
:08d6e80000ea0400020000004a
:020000040000fa
:020000040005f5
:08d6f00000ea04000200000042
:020000040000fa
:020000040005f5
:08d6f80000ea0400020000003a
:020000040000fa
:020000040005f5
:08d7000000ea04000200000031
:020000040000fa
:020000040005f5
:08d7080000ea04000200000029
:020000040000fa
:020000040005f5
:08d7100000ea04000200000021
:020000040000fa
:020000040005f5
:08d7180000ea04000200000019
:020000040000fa
:020000040005f5
:08d7200000ea04000200000011
:020000040000fa
:020000040005f5
:08d7280000ea04000200000009
:020000040000fa
:020000040005f5
:08d7300000ea04000200000001
:020000040000fa
:020000040005f5
:08d7380000ea040002000000f9
:020000040000fa
:020000040005f5
:10d740000208000020000000800000000008000027
:10d750000200000082000000ffff00000000000047
:020000040000fa
:020000040005f5
:10d760000000fa00c2fe0700f2fe070005000700f5
:08d770000080fa000000060031
:020000040000fa
:020000040005f5
:10d778000000fa00f8ff0700ffff37000000fa007a
:08d788000080fa000000060019
:020000040000fa
:020000040015e5
:047e0000ffff000080
:020000040000fa
:020000040015e5
:047e2000ff1f000040
:020000040000fa
:020000040015e5
:047e300078ffff00d8
:020000040000fa
:020000040015e5
:047e380097ffff00b1
:020000040000fa
:020000040015e5
:047e40009fffff00a1
:020000040000fa
:020000040015e5
:047e4800ffffff0039
:020000040000fa
:020000040015e5
:047e5000ffffff0031
:020000040000fa
:020000040015e5
:047e5800efffff0039
:020000040000fa
:020000040100f9
:04300000ffffff00cf
:00000001FF
